{
  "_format": "hh-sol-artifact-1",
  "contractName": "HelloWorld",
  "sourceName": "contracts/HelloWorld.sol",
  "abi": [
    {
      "inputs": [
        {
          "internalType": "string",
          "name": "_announcement",
          "type": "string"
        }
      ],
      "stateMutability": "nonpayable",
      "type": "constructor"
    },
    {
      "inputs": [],
      "name": "announcement",
      "outputs": [
        {
          "internalType": "string",
          "name": "",
          "type": "string"
        }
      ],
      "stateMutability": "view",
      "type": "function"
    },
    {
      "inputs": [
        {
          "internalType": "string",
          "name": "_announcer",
          "type": "string"
        }
      ],
      "name": "changeAnnouncer",
      "outputs": [],
      "stateMutability": "nonpayable",
      "type": "function"
    },
    {
      "inputs": [],
      "name": "hello",
      "outputs": [
        {
          "internalType": "string",
          "name": "",
          "type": "string"
        }
      ],
      "stateMutability": "view",
      "type": "function"
    }
  ],
  "bytecode": "0x608060405234801561001057600080fd5b506040516106e43803806106e48339818101604052602081101561003357600080fd5b810190808051604051939291908464010000000082111561005357600080fd5b8382019150602082018581111561006957600080fd5b825186600182028301116401000000008211171561008657600080fd5b8083526020830192505050908051906020019080838360005b838110156100ba57808201518184015260208101905061009f565b50505050905090810190601f1680156100e75780820380516001836020036101000a031916815260200191505b506040525050508060019080519060200190610104929190610157565b506040518060400160405280600981526020017f5468652041646d696e000000000000000000000000000000000000000000000081525060009080519060200190610150929190610157565b50506101f4565b828054600181600116156101000203166002900490600052602060002090601f016020900481019282601f1061019857805160ff19168380011785556101c6565b828001600101855582156101c6579182015b828111156101c55782518255916020019190600101906101aa565b5b5090506101d391906101d7565b5090565b5b808211156101f05760008160009055506001016101d8565b5090565b6104e1806102036000396000f3fe608060405234801561001057600080fd5b50600436106100415760003560e01c806319ff1d2114610046578063384b4b57146100c95780639f5755ae14610184575b600080fd5b61004e610207565b6040518080602001828103825283818151815260200191508051906020019080838360005b8381101561008e578082015181840152602081019050610073565b50505050905090810190601f1680156100bb5780820380516001836020036101000a031916815260200191505b509250505060405180910390f35b610182600480360360208110156100df57600080fd5b81019080803590602001906401000000008111156100fc57600080fd5b82018360208201111561010e57600080fd5b8035906020019184600183028401116401000000008311171561013057600080fd5b91908080601f016020809104026020016040519081016040528093929190818152602001838380828437600081840152601f19601f820116905080830192505050505050509192919290505050610356565b005b61018c610370565b6040518080602001828103825283818151815260200191508051906020019080838360005b838110156101cc5780820151818401526020810190506101b1565b50505050905090810190601f1680156101f95780820380516001836020036101000a031916815260200191505b509250505060405180910390f35b606060006001604051602001808380546001816001161561010002031660029004801561026b5780601f1061024957610100808354040283529182019161026b565b820191906000526020600020905b815481529060010190602001808311610257575b5050807f2000000000000000000000000000000000000000000000000000000000000000815250600101807f7361797300000000000000000000000000000000000000000000000000000000815250600401807f20000000000000000000000000000000000000000000000000000000000000008152506001018280546001816001161561010002031660029004801561033c5780601f1061031a57610100808354040283529182019161033c565b820191906000526020600020905b815481529060010190602001808311610328575b505092505050604051602081830303815290604052905090565b806000908051906020019061036c92919061040e565b5050565b60018054600181600116156101000203166002900480601f0160208091040260200160405190810160405280929190818152602001828054600181600116156101000203166002900480156104065780601f106103db57610100808354040283529160200191610406565b820191906000526020600020905b8154815290600101906020018083116103e957829003601f168201915b505050505081565b828054600181600116156101000203166002900490600052602060002090601f016020900481019282601f1061044f57805160ff191683800117855561047d565b8280016001018555821561047d579182015b8281111561047c578251825591602001919060010190610461565b5b50905061048a919061048e565b5090565b5b808211156104a757600081600090555060010161048f565b509056fea2646970667358221220d1edd9917154238408b9334334df74aab2c66ae724e61eea7494f968bfc1a42464736f6c63430007030033",
  "linkReferences": {},
  "deployedLinkReferences": {}
}